S00F0000535049746573742E7372656369
S113000012C01FC01EC01DC01CC01BC01AC019C016
S113001018C017C016C016C014C013C012C011C037
S113002010C00FC00EC011241FBECFEDCDBF20E005
S1130030A0E6B0E001C01D92A136B207E1F724D0DA
S113004040C0DECF1F920F920FB60F9211248F93F0
S1130050B49903C081E0809360008F910F900FBE2C
S11300600F901F9018958FB980E48EB9769BFECFC0
S11300708FB1089588E18DB9BE9A87B38F7587BB18
S113008088B3806A88BB0895F5DF81E081BBC49A98
S11300908BB780628BBF80B5806180BD7894C1E0EE
S11300A0809160008823E1F31092600086E5DBDF35
S11300B0C2BB87EA91E60197F1F700C0000012BACB
S10900C0EFCFF894FFCF1E
S9030000FC
