S010000055415254746573742E7372656318
S113000012C017C016C015C014C013C012C016C049
S113001010C00FC00EC00DC00CC00BC00AC009C078
S113002008C007C006C011241FBECFEDCDBF2AD023
S113003048C0E6CF5D9BFECF8CB908951F920F9206
S11300400FB60F9211242F933F934F935F936F93A7
S11300507F938F939F93AF93BF93EF93FF938CB151
S1130060E9DFFF91EF91BF91AF919F918F917F91C4
S11300706F915F914F913F912F910F900FBE0F9011
S11300801F90189512B888E089B9599A8EE083B9FF
S113009088E98AB988E581BF84E081BB82BB2FE30C
S11300A08DE093E0215080409040E1F700C00000D3
S11300B012BA87EA91E60197F1F700C0000078943C
S10900C0FFCFF894FFCF0E
S9030000FC
